{
  "contractName": "BackupHashStorage",
  "abi": [
    {
      "constant": true,
      "inputs": [
        {
          "name": "",
          "type": "uint256"
        }
      ],
      "name": "hashes",
      "outputs": [
        {
          "name": "id",
          "type": "uint256"
        },
        {
          "name": "contentsHash",
          "type": "string"
        },
        {
          "name": "absoluteFolderPath",
          "type": "string"
        },
        {
          "name": "timestamp",
          "type": "uint256"
        }
      ],
      "payable": false,
      "stateMutability": "view",
      "type": "function",
      "signature": "0x501895ae"
    },
    {
      "constant": true,
      "inputs": [],
      "name": "backupsCount",
      "outputs": [
        {
          "name": "",
          "type": "uint256"
        }
      ],
      "payable": false,
      "stateMutability": "view",
      "type": "function",
      "signature": "0x674347bd"
    },
    {
      "inputs": [],
      "payable": false,
      "stateMutability": "nonpayable",
      "type": "constructor",
      "signature": "constructor"
    },
    {
      "constant": false,
      "inputs": [
        {
          "name": "_contentsHash",
          "type": "string"
        },
        {
          "name": "_absoluteFolderPath",
          "type": "string"
        }
      ],
      "name": "addHashToBlochain",
      "outputs": [],
      "payable": false,
      "stateMutability": "nonpayable",
      "type": "function",
      "signature": "0xff055aad"
    }
  ],
  "bytecode": "0x60806040526000805534801561001457600080fd5b506100986040805190810160405280600981526020017f74656d70486173683100000000000000000000000000000000000000000000008152506040805190810160405280600981526020017f74656d70506174683100000000000000000000000000000000000000000000008152506101a3640100000000026401000000009004565b61011b6040805190810160405280600981526020017f74656d70486173683200000000000000000000000000000000000000000000008152506040805190810160405280600981526020017f74656d70506174683200000000000000000000000000000000000000000000008152506101a3640100000000026401000000009004565b61019e6040805190810160405280600981526020017f74656d70486173683300000000000000000000000000000000000000000000008152506040805190810160405280600981526020017f74656d70506174683300000000000000000000000000000000000000000000008152506101a3640100000000026401000000009004565b6102bf565b60008054600190810180835560408051608081018252828152602080820188815282840188905242606084015293865284815291909420845181559151805192936101f693908501929190910190610224565b5060408201518051610212916002840191602090910190610224565b50606082015181600301559050505050565b828054600181600116156101000203166002900490600052602060002090601f016020900481019282601f1061026557805160ff1916838001178555610292565b82800160010185558215610292579182015b82811115610292578251825591602001919060010190610277565b5061029e9291506102a2565b5090565b6102bc91905b8082111561029e57600081556001016102a8565b90565b610560806102ce6000396000f3fe6080604052600436106100565763ffffffff7c0100000000000000000000000000000000000000000000000000000000600035041663501895ae811461005b578063674347bd14610171578063ff055aad14610198575b600080fd5b34801561006757600080fd5b506100856004803603602081101561007e57600080fd5b50356102d4565b604051808581526020018060200180602001848152602001838103835286818151815260200191508051906020019080838360005b838110156100d25781810151838201526020016100ba565b50505050905090810190601f1680156100ff5780820380516001836020036101000a031916815260200191505b50838103825285518152855160209182019187019080838360005b8381101561013257818101518382015260200161011a565b50505050905090810190601f16801561015f5780820380516001836020036101000a031916815260200191505b50965050505050505060405180910390f35b34801561017d57600080fd5b50610186610412565b60408051918252519081900360200190f35b3480156101a457600080fd5b506102d2600480360360408110156101bb57600080fd5b8101906020810181356401000000008111156101d657600080fd5b8201836020820111156101e857600080fd5b8035906020019184600183028401116401000000008311171561020a57600080fd5b91908080601f016020809104026020016040519081016040528093929190818152602001838380828437600092019190915250929594936020810193503591505064010000000081111561025d57600080fd5b82018360208201111561026f57600080fd5b8035906020019184600183028401116401000000008311171561029157600080fd5b91908080601f016020809104026020016040519081016040528093929190818152602001838380828437600092019190915250929550610418945050505050565b005b600160208181526000928352604092839020805481840180548651600296821615610100026000190190911695909504601f810185900485028601850190965285855290949193929091908301828280156103705780601f1061034557610100808354040283529160200191610370565b820191906000526020600020905b81548152906001019060200180831161035357829003601f168201915b50505060028085018054604080516020601f60001961010060018716150201909416959095049283018590048502810185019091528181529596959450909250908301828280156104025780601f106103d757610100808354040283529160200191610402565b820191906000526020600020905b8154815290600101906020018083116103e557829003601f168201915b5050505050908060030154905084565b60005481565b600080546001908101808355604080516080810182528281526020808201888152828401889052426060840152938652848152919094208451815591518051929361046b93908501929190910190610499565b5060408201518051610487916002840191602090910190610499565b50606082015181600301559050505050565b828054600181600116156101000203166002900490600052602060002090601f016020900481019282601f106104da57805160ff1916838001178555610507565b82800160010185558215610507579182015b828111156105075782518255916020019190600101906104ec565b50610513929150610517565b5090565b61053191905b80821115610513576000815560010161051d565b9056fea165627a7a72305820df706a859383c0af03a0b7b8de4c4121a9655b0173a0f7c8977ee196d1eb28090029",
  "source": "pragma solidity ^0.5.0;\n\ncontract BackupHashStorage {\n\tuint public backupsCount = 0;\n\n\tconstructor() public {\n\t\taddHashToBlochain('tempHash1','tempPath1');\n\t\taddHashToBlochain('tempHash2','tempPath2');\n\t\taddHashToBlochain('tempHash3','tempPath3');\n\t}\n\n\tstruct HashMeta {\n\t\tuint id;\n\t\tstring contentsHash;\n\t\tstring absoluteFolderPath;\n\t\tuint256 timestamp;\n\t}\n\n\tmapping (uint => HashMeta) public hashes;\n\n\tfunction addHashToBlochain(string memory _contentsHash,string memory _absoluteFolderPath) public {\n\t\tbackupsCount++;\n\t\thashes[backupsCount] = HashMeta(backupsCount, _contentsHash, _absoluteFolderPath, now);\n\t}\n}",
  "sourcePath": "/Users/animesh.kumar/hackathon/eth-todo-list/contracts/BackupHashStorage.sol",
  "compiler": {
    "name": "solc",
    "version": "0.5.0+commit.1d4f565a.Emscripten.clang"
  },
  "schemaVersion": "3.0.1",
  "updatedAt": "2021-10-04T18:24:03.037Z",
  "devdoc": {
    "methods": {}
  },
  "userdoc": {
    "methods": {}
  }
}